:100000000C94CC000C94E9000C94E9000C94E900E9
:100010000C94400A0C94310A0C94E9000C94E90009
:100020000C94E9000C94E9000C94E9000C94E900AC
:100030000C94E9000C94E9000C94E9000C94E9009C
:100040000C940D0A0C94E9000C94E9000C94E9005E
:100050000C94E9000C94E9000C94E9000C94E9007C
:100060000C94E9000C94E900001B04011304022421
:100070000603F30304D00505EB0306BA0507E30303
:1000800008D50309A8050ABD030B8C050CA5030DB3
:1000900070050E9D030F5905109503114705128D2C
:1000A0000313350514850315FF0416730317C501E3
:1000B000185D0319FC021ABE011BE6021C8502250D
:1000C00073202D2025730025733A20253032642DAE
:1000D000253032642D2530326420253032643A25B3
:1000E0003032643A253032640D0A00526561646929
:1000F0006E67205254433A0D0A000D0A476F696E2D
:100100006720746F20736C6565702E0D0A00426164
:100110007474657279204C6F770D0A0042617474B3
:1001200065727920437269746963616C202D3E2089
:1001300044726F706F66662E0D0A00436F727265AF
:1001400063742054696D65202D3E2044726F706F7A
:1001500066662E0D0A0052544320776F6B65206D42
:10016000652075700D0A0057616B696E67207570A8
:100170002E2E2E20282564290D0A004E696368441E
:10018000726F700056312E312E310057696C642029
:10019000537079000D0A000011241FBECFEFD4E088
:1001A000DEBFCDBF11E0A0E0B1E0E4E9F4E202C0BF
:1001B00005900D92A632B107D9F711E0A6E2B1E0A1
:1001C00001C01D92A63EB107E1F70E94810D0C947B
:1001D00048120C9400001092B9008BE08093B80094
:1001E000089594EA9093BC009091BC0097FFFCCFD7
:1001F0009091B900987F983011F0903199F48093E4
:10020000BB0084E88093BC008091BC0087FFFCCFDA
:100210009091B900987F983139F081E0903429F4B9
:1002200080E0089581E0089580E0089544EA34E88C
:1002300024E94093BC009091BC0097FFFCCF9091C3
:10024000B900987F983011F0903199F78093BB00F6
:100250003093BC009091BC0097FFFCCF9091B90007
:10026000987F903211F0983539F42093BC0090912A
:10027000BC0094FDFCCFDDCF08950E94F1000895ED
:1002800084E98093BC008091BC0084FDFCCF08957C
:100290008093BB0084E88093BC008091BC0087FF02
:1002A000FCCF9091B900987F81E0983209F480E00A
:1002B0000895EF92FF92CF93DF93E82EE7017E013E
:1002C000F92EE70104C00E944801882319F489919E
:1002D0008823C9F7DF91CF91FF90EF90089584ECC8
:1002E0008093BC008091BC0087FFFCCF8091BB0055
:1002F0000895EF92FF920F931F93DF93CF930F9286
:10030000CDB7DEB7482F592F8A010AC069830E94F2
:100310006F01F80181938F01698161508A3011F07A
:100320006623A1F70F90CF91DF911F910F91FF905E
:10033000EF90089584E88093BC008091BC0087FF13
:10034000FCCF8091BB0008959C012627622F629507
:100350006227062E669566956025062E66956025B1
:100360006770022E232F669507946795302D2627F8
:100370000694679530252627C901089580E590E009
:1003800060E00E944E1180E008950E94D50A80E04E
:100390000895DF93CF930F92CDB7DEB780E1BE0112
:1003A0006F5F7F4F0E94710987FD05C08981813091
:1003B00021F08CEF03C08FEF01C080E00F90CF9150
:1003C000DF91089583E00E944C090E94C9010895BD
:1003D0003F924F925F926F927F928F929F92AF92D5
:1003E000BF92CF92DF92EF92FF920F931F93DF9312
:1003F000CF9300D000D00F92CDB7DEB79D838C8312
:10040000362E672E742E82E00E944C090E94C9018C
:1004100087FD64C08C810E944C09FE013496818165
:100420000E944C090E94C90187FD58C04E010894E2
:10043000811C911C82E0482E512C4C0E5D1E032D18
:10044000162DAA24BB24CC24DD240FC07801F8018A
:1004500081918F010E944C09C501F70160810E94C2
:10046000A4015C010894C11CD11C8C819D81C8161B
:10047000D90660F380E1B4010E94710987FD2DC0A7
:100480008981F201808380E1B4010E94710987FDB6
:1004900024C08981F20181838A819B81A816B906D3
:1004A00099F07A9441F082E00E944C090E94C901BF
:1004B00087FFC5CF13C083E00E944C090E94C90189
:1004C00087FD0CC08EEF0AC081E00E944C090E949B
:1004D000C90118161CF480E001C08FEF0F900F9037
:1004E0000F900F900F90CF91DF911F910F91FF9080
:1004F000EF90DF90CF90BF90AF909F908F907F90C4
:100500006F905F904F903F900895CF92DF92EF925F
:10051000FF920F931F93DF93CF93CDB7DEB7CC58E5
:10052000D0400FB6F894DEBF0FBECDBF8BE791E091
:100530008E010F5F1F4FB8010E94F50E25E1C22EFC
:10054000D12CCC0EDD1E84E891E0B6010E94F50EA0
:100550008DB79EB708970FB6F8949EBF0FBE8DBF9C
:10056000EDB7FEB7319699E2E92EF12CEC0EFD1EA7
:10057000ADB7BEB71296FC92EE9211978FEB90E05A
:100580009383828315830483D782C6820E94360FA9
:100590008DB79EB708960FB6F8949EBF0FBE8DBF5D
:1005A00084E690E0B70145E00E94E801C457DF4FC0
:1005B0000FB6F894DEBF0FBECDBFCF91DF911F9174
:1005C0000F91FF90EF90DF90CF900895DF93CF933E
:1005D0000F92CDB7DEB789E090E00E944011898389
:1005E00081E090E0BE016F5F7F4F45E00E94E8012F
:1005F0000F90CF91DF910895BF92CF92DF92EF924B
:10060000FF920F931F93DF93CF93CDB7DEB7289759
:100610000FB6F894DEBF0FBECDBF80E590E00E941C
:1006200040118A8381E090E0BE016E5F7F4F45E01C
:100630000E94E80187FD31C0BB2433E0E32EF12C9A
:10064000EC0EFD1E6E010894C11CD11C22C08B2D26
:1006500097E0899F80011124B8016F5A7F4FC7012D
:100660000E94250BC801895A9F4F0E94401189831F
:1006700081E090E0B60145E00E94E80187FD0DC0F1
:1006800086E090E0B70145E00E94E80187FD05C0E3
:10069000B3948A81B816D8F280E028960FB6F89401
:1006A000DEBF0FBECDBFCF91DF911F910F91FF90A5
:1006B000EF90DF90CF90BF900895DF93CF9300D05D
:1006C000CDB7DEB70E94E50B9A83898382E090E084
:1006D000BE016F5F7F4F45E00E94E8010F900F90D1
:1006E000CF91DF910895DF93CF930F92CDB7DEB70F
:1006F000198281E090E0BE016F5F7F4F45E00E946C
:10070000E8010F90CF91DF91089581E090E060EED5
:1007100071E045E00E94E801089581E090E06EE814
:1007200071E045E00E94E801089581E090E06FE803
:1007300071E045E00E94E801089584E090E060E304
:1007400071E045E00E94E8010895DF93CF9300D067
:10075000CDB7DEB782E190E00E9448119A83898389
:1007600082E090E0BE016F5F7F4F45E00E94E801AC
:100770000F900F90CF91DF910895DF93CF9300D02A
:10078000CDB7DEB780E190E00E9448119A8389835B
:1007900082E090E0BE016F5F7F4F45E00E94E8017C
:1007A0000F900F90CF91DF91089586E090E00E9426
:1007B00040118093350181E090E065E371E045E010
:1007C0000E94E801089586E090E067E371E045E06B
:1007D0000E94E801089586E090E06AE271E045E059
:1007E0000E94E80108950F931F93DF93CF9300D0E9
:1007F00000D000D0CDB7DEB78E010F5F1F4FC8010C
:100800000E94C50786E090E0B80145E00E94E8013B
:1008100026960FB6F894DEBF0FBECDBFCF91DF9105
:100820001F910F91089584E090E062EE71E045E041
:100830000E94E8010895DF93CF9300D0CDB7DEB7D3
:1008400080E190E09A83898382E090E0BE016F5F4F
:100850007F4F45E00E94E8010F900F90CF91DF910C
:1008600008952F923F924F925F926F927F928F9254
:100870009F92AF92BF92CF92DF92EF92FF920F932F
:100880001F93DF93CF93CDB7DEB728970FB6F894B9
:10089000DEBF0FBECDBF9B838A83862E7887942EC2
:1008A0002DB73EB73F832E837C0102969D838C83B8
:1008B000ADB7BEB7A81BB90B0FB6F894BEBF0FBE3D
:1008C000ADBFADB6BEB60894A11CB11C15012E0C6F
:1008D0003F1C81E00E944C090E94C901982F87FDAE
:1008E0006DC08A810E944C09FE01329681810E946E
:1008F0004C090E94C901982F87FD60C02E01089401
:10090000411C511C3501650100E010E00CC080E184
:10091000B2010E94710987FD50C08981F60181935F
:100920006F010F5F1F4F2C813D810217130778F372
:10093000650180E090E000E010E007C0D6016D9115
:100940006D010E94A4010F5F1F4F0E151F05B0F32C
:10095000F101208131818217930781F42885882D48
:10096000922FFC0180E090E005C0D3012D913D0164
:10097000219301968E159F05C0F315C09A9449F0F6
:1009800082E00E944C090E94C901982F87FFBACFCC
:1009900015C083E00E944C090E94C901982F87FD71
:1009A0000DC09EEF0BC081E00E944C090E94C9015E
:1009B000982F990F990B982301C09FEF892FEE81F3
:1009C000FF810FB6F894FEBF0FBEEDBF28960FB69D
:1009D000F894DEBF0FBECDBFCF91DF911F910F9175
:1009E000FF90EF90DF90CF90BF90AF909F908F904F
:1009F0007F906F905F904F903F902F900895FF925F
:100A00000F931F93DF93CF930F92CDB7DEB7198269
:100A100081E090E08E010F5F1F4FB80145E00E941A
:100A20003104F82E87FD19C08981863E79F481E072
:100A300090E060EE71E045E00E943104F82E87E01E
:100A400090E06091E0010E944E1107C081E090E0CB
:100A5000B80145E00E943104F82E8F2D0F90CF9100
:100A6000DF911F910F91FF9008951F9381E090E017
:100A70006EE871E045E00E943104182F85E090E0B7
:100A800060918E010E944E11812F1F9108951F9336
:100A900081E090E06FE871E045E00E943104182F9A
:100AA00084E090E060918F010E944E11812F1F9190
:100AB00008951F93CF93DF93C0E3D1E084E090E0EB
:100AC000BE0145E00E943104182FCE0164E044E1EC
:100AD00050E00E942A0B812FDF91CF911F91089542
:100AE0001F93DF93CF9300D0CDB7DEB782E090E0C5
:100AF000BE016F5F7F4F45E00E943104182F69816E
:100B00007A8182E190E00E945C11812F0F900F901A
:100B1000CF91DF911F9108951F93DF93CF9300D062
:100B2000CDB7DEB782E090E0BE016F5F7F4F45E05A
:100B30000E943104182F69817A8180E190E00E943F
:100B40005C11812F0F900F90CF91DF911F9108952D
:100B50001F9381E090E065E371E045E00E9431047D
:100B6000182F86E090E0609135010E944E11812F90
:100B70001F9108951F93CF93DF93CAE2D1E086E0DF
:100B800090E0BE0145E00E943104182FCE0166E3DB
:100B900070E00E944D0B812FDF91CF911F9108953E
:100BA000DF92EF92FF920F931F93DF93CF93CDB716
:100BB000DEB72C970FB6F894DEBF0FBECDBF86E030
:100BC00090E08E010F5F1F4FB80145E00E94310495
:100BD000D82E8091E001833041F1C8010E941C09A8
:100BE0008823F1F0C8010E944F07C80160E370E05C
:100BF0000E944D0B47E0E42EF12CEC0EFD1EC701C8
:100C00000E943D088AE08F83C801B7010E94B9089D
:100C1000C8010E948107C80167E371E00E943008A3
:100C200089E090E060E00E944E118D2D2C960FB669
:100C3000F894DEBF0FBECDBFCF91DF911F910F9112
:100C4000FF90EF90DF9008951F93CF93DF93C2EE54
:100C5000D1E084E090E0BE0145E00E943104182F0D
:100C6000CE0164E040E050E00E942A0B812FDF912A
:100C7000CF911F910895DF93CF930F92CDB7DEB739
:100C800081E090E0BE016F5F7F4F45E00E9431043C
:100C900087FD1EC0498180E090E09C01220F331F38
:100CA000280F391FF901E859FF4FE491E41751F477
:100CB00027593F4FF90185919491FC01099587FFD0
:100CC00005C006C001968D31910539F70E94E201F9
:100CD0000F90CF91DF9108951F93DF93CF930F92E1
:100CE000CDB7DEB7182F80ED0E941601812F0E942C
:100CF000480181ED0E94F1000E949A0189830E94BF
:100D0000400189810F90CF91DF911F910895DF936A
:100D1000CF930F92CDB7DEB780ED0E9416018FE022
:100D20000E94480181ED0E94F1000E949A0189838E
:100D30000E94400189810F90CF91DF9108951F9308
:100D4000DF93CF930F92CDB7DEB7182F80ED698375
:100D50000E941601812F0E9448016981862F0E94FE
:100D600048010E9440010F90CF91DF911F9108959B
:100D70000F931F93DF93CF930F92CDB7DEB7182F4A
:100D8000062F49830E946C064981642F6095682371
:100D90000423602B812F0E949F060F90CF91DF913B
:100DA0001F910F9108958FE00E946C068FE00E94C2
:100DB0006C068AE00E946C06682F6F71606A8AE098
:100DC0000E949F0608950F931F93CF93DF93FC011A
:100DD0008DB79EB742970FB6F8949EBF0FBE8DBFDA
:100DE000ADB7BEB7119600E911E0CDB7DEB71A83F3
:100DF000098387EC90E013969C938E931297159637
:100E00007C936E931497858116968C9316971796FC
:100E10001C921797848118968C93189719961C9298
:100E2000199783811A968C931A971B961C921B977D
:100E300082811C968C931C971D961C921D97818114
:100E40001E968C931E971F961C921F97808150961A
:100E50008C93509751961C920E94360F8DB79EB777
:100E600042960FB6F8949EBF0FBE8DBFC8010E9478
:100E70005309DF91CF911F910F910895282F843648
:100E800060F46AE00E94030F96EF899F902D112471
:100E9000920F8295807F892B089583E60895CF93E2
:100EA000DF93EC018D810E943E07682F87E00E944E
:100EB0009F068C810E943E07682F86E00E949F0655
:100EC0008B810E943E07682F85E00E949F068A81E1
:100ED0000E943E07682F83E04FE30E94B806898195
:100EE0000E943E07682F82E00E949F0688810E9430
:100EF0003E07682F6F7781E00E949F06DF91CF91B8
:100F00000895CF93DF93EC018C810E943E07682FF8
:100F1000606A8AE00E949F068B810E943E07682FCC
:100F20006F738BE00E949F068A810E943E07682FA4
:100F30006F738CE00E949F0689810E943E07682F94
:100F40006F778DE00E949F0688810E943E07682F80
:100F50006F778EE00E949F068FE00E946C0681E012
:100F60000E946C06DF91CF9108958A3958F4282F9A
:100F700022952F70220F922F990F990F920F8F7039
:100F8000980F01C093E6892F0895CF93DF93EC016A
:100F90008CE00E946C06682F6F7B8CE00E949F069D
:100FA00080ED0E94160181E00E94480181ED0E94BF
:100FB000F1000E946F018F770E94B50788830E941D
:100FC0006F010E94B50789830E946F018F730E9491
:100FD000B5078A830E946F010E946F010E94B507C6
:100FE0008B830E946F010E94B5078C830E946F0162
:100FF0000E94B5078D830E94400181E00E946C062B
:10100000DF91CF910895CF93DF93EC018AE00E94A6
:101010006C068F710E94B5078C838BE00E946C0672
:101020008F730E94B5078B838CE00E946C068F73D0
:101030000E94B5078A838DE00E946C068F770E941C
:10104000B50789838EE00E946C068F770E94B507F2
:1010500088831D8281E00E946C06DF91CF91089504
:10106000E82FF92F862F972FDC01CF0106962191CB
:101070002D93E817F907D9F70895FC01158214821A
:1010800013821282118210820895FC01DB011596F1
:101090009C9115978581891750F1981730F1149616
:1010A0009C9114978481891710F19817F0F013968A
:1010B0009C91139783818917D0F09817B0F01296FE
:1010C0009C9112978281891790F0981770F0119671
:1010D0009C9111978181891750F0981730F09C915D
:1010E0008081891720F0981720F481E0089580E02E
:1010F000089582E008958630B1F1873070F483302E
:10110000B1F0843028F4813091F0823051F511C073
:10111000843049F1853029F50AC0893021F18930C0
:1011200030F08B3001F18B3010F08C30D1F48FE146
:101130000895262F30E02053384FC90183709070F6
:10114000009739F4C90164E670E00E940F0F009720
:1011500061F4C90160E971E00E940F0F009739F452
:1011600004C080E008958EE108958DE108958CE13A
:101170000895DF92EF92FF920F931F93CF93DF9327
:10118000EC018B018881FB019081890F888304C069
:101190008C5388839F5F9983888199818C33C0F7B2
:1011A000F8018181890F898304C08C5389839F5FF3
:1011B0009A8389819A818C33C0F7F8018281890FE3
:1011C0008A8304C088518A839F5F9B838A819B8125
:1011D0008831C0F7F8018381890F8B830BC0D81A3F
:1011E000DB828F2D8F5F8C838D3028F08C508C8329
:1011F000E394ED82ED80DB80FC808F2D6E2D0E94CC
:101200007B088D1560F3F80184818F0D8C8304C0F9
:101210008C508C839F5F9D838C819D818D30C0F726
:10122000F8018581890F8D83DF91CF911F910F91F7
:10123000FF90EF90DF9008951F93FC0180818C3325
:10124000A0F481818C3388F48281883170F4138119
:10125000112359F08481882341F08D3030F4658169
:101260000E947B0891E0811708F490E0892F1F917C
:1012700008959093C5008093C400662321F082E016
:101280008093C00002C01092C00088E18093C1002A
:1012900086E08093C20008959091C00095FFFCCF36
:1012A0008093C6000895CF93DF93EC0102C00E94A3
:1012B0004C0989918823D9F7DF91CF910895CF9375
:1012C000DF93EC01FC018491882341F021960E9478
:1012D0004C09FE01219684918823C9F7DF91CF91B3
:1012E0000895882361F0909164009F7D909364003D
:1012F00014BC95E095BD91E090936E0001C081E033
:10130000809329018091C00087FD04C0809129014C
:101310008823C1F780916E008E7F80936E0015BC8C
:101320008091640080628093640080912901882309
:1013300031F08091C600FB01808380E008958FEF3B
:1013400008957F928F929F92AF92BF92CF92DF9239
:10135000EF92FF920F931F93DF93CF9300D0CDB7FF
:10136000DEB78C01962E5A01862F6E010894C11C9F
:10137000D11CB6010E947109882E8823D1F489817D
:101380008A30B1F1780191E07C2CCD2C8981F70174
:1013900081937F018F01892D672D7C2D9A830E9477
:1013A00071099A819F5F882331F489818A3071F7AE
:1013B00008C090E001C0882E87FE03C0F8011082AB
:1013C00006C08981F80180831182F5019083882D00
:1013D0000F900F90CF91DF911F910F91FF90EF90A1
:1013E000DF90CF90BF90AF909F908F907F900895A7
:1013F00090E0E7CF80912901882329F0809129018D
:101400008150809329010895EFECF7E03197F1F7CF
:1014100000C000000197C1F708951F920F920FB608
:101420000F9211242F933F934F935F936F937F936A
:101430008F939F93AF93BF93EF93FF930E94FA090B
:10144000FF91EF91BF91AF919F918F917F916F919C
:101450005F914F913F912F910F900FBE0F901F9072
:1014600018951F920F920FB60F9211248F9381E05F
:10147000809326018F910F900FBE0F901F901895AB
:101480001F920F920FB60F9211248F9382E08093D8
:1014900026018F910F900FBE0F901F901895CF923D
:1014A000DF92EF92FF920F931F93DF93CF93CDB70D
:1014B000DEB72F970FB6F894DEBF0FBECDBF182F43
:1014C0007E010894E11CF11CC7012F874E876D87B0
:1014D0000E94C50787E0C82ED12CCC0EDD1EC601A8
:1014E0000E943D081B876D856A874E8549872F8539
:1014F00028870F83C701B6010E94B90807E311E0EE
:10150000C701B8010E943008C8010E9481072F96C8
:101510000FB6F894DEBF0FBECDBFCF91DF911F9104
:101520000F91FF90EF90DF90CF900895EF92FF9290
:101530000F931F93CF93DF937C0184E090E00E9490
:10154000401180938F0180938E01C4E6D0E0988192
:10155000977F9883282F30E0309387002093860070
:1015600080938A0010928B00109285001092840064
:10157000289A00E810E080EFF801808382E18093F0
:101580008100C7010E94040AF801108288818860E6
:101590008883289881E090E00E94040ADF91CF912F
:1015A0001F910F91FF90EF9008950F931F9386E086
:1015B00090E00E944011082F409A89E090E00E943C
:1015C0004011182F8630D0F4402F50E028EE33E041
:1015D000429FC001439F900D529F900D1124209176
:1015E000E001213019F40E94960A02C00E94040A08
:1015F000612F6F5F89E090E00E944E111F910F9163
:101600000895CF92DF92EF92FF920F931F93CF93A3
:10161000DF936C017A01C0E0D0E0062F10E009C032
:10162000CE018E0D9F1D0E944011F60181936F0126
:101630002196C017D107A4F3DF91CF911F910F918D
:10164000FF90EF90DF90CF900895AB0166E00E948D
:10165000010B0895CF92DF92EF92FF920F931F93A9
:10166000CF93DF93EC017A0100E010E0C62EDD2479
:1016700008C06991C8018E0D9F1D0E944E110F5F19
:101680001F4F0C151D05ACF3DF91CF911F910F91EA
:10169000FF90EF90DF90CF900895AB0166E00E943D
:1016A0002A0B0895DF92EF92FF920F931F93DF931F
:1016B000CF9300D000D000D0CDB7DEB78091E0014D
:1016C0008330E1F180912401882321F48091260167
:1016D0008130A1F580E590E00E944011D82E27E0EE
:1016E000829F9001112489010F5A1F4F81E0293AEE
:1016F000380720F5809164008F7780936400439AC7
:101700000E94EB007E010894E11CF11CC7010E94BD
:10171000C507C701B8010E944D0B60912601629573
:10172000607F80912401682BC80106960E944E11AB
:101730006D2D6F5F80E590E00E944E1126960FB6EA
:10174000F894DEBF0FBECDBFCF91DF911F910F91F7
:10175000FF90EF90DF900895E4E6F0E080818E7FC7
:101760008083ECE7F0E080E4808384EA80937A0071
:1017700010927E0080818E60808385ED8A95F1F7DE
:1017800000000895809164008170809364008091CE
:101790007A00806480937A0080917A0084FFFCCF85
:1017A00080917A00806180937A0020917800309156
:1017B0007900C901089510927C0010927A00E4E645
:1017C000F0E08081816080830895DF92EF92FF9244
:1017D0000F931F930E94AC0B0E94C20B28E0D22EE5
:1017E000EE24FF2487010E94C20BA0E0B0E0E80EC7
:1017F000F91E0A1F1B1FDA94B1F70E94DB0B93E05E
:1018000016950795F794E7949A95D1F7C7011F911C
:101810000F91FF90EF90DF900895DF93CF930F9299
:10182000CDB7DEB789830E94520B8981882369F482
:101830008AEF90E00E945F098FEF93ECA9E081505E
:101840009040A040E1F700C000008091C100877E79
:101850008093C100809164008F6E809364008091BA
:10186000680086608093680010922601109224011F
:101870002898439885B78066982F9F7D85BF95BF30
:10188000409883B7816083BF889583B78E7F83BF7D
:101890000F90CF91DF9108950F931F93DF93CF9314
:1018A00000D000D000D0CDB7DEB78BEE90E00E9424
:1018B0005F098AE291E060E071E00E94E3068E0138
:1018C0000F5F1F4FC8010E94C507C8016CE071E09F
:1018D0000E94E30687E391E068E171E00E94E3067D
:1018E00026960FB6F894DEBF0FBECDBFCF91DF9125
:1018F0001F910F910895DF92EF92FF920F931F9324
:10190000DF93CF93CDB7DEB72C970FB6F894DEBF39
:101910000FBECDBF409A80916800897F8093680098
:10192000809164008D7780936400439A0E94EB005D
:1019300087E690E061E00E943909809126018230BB
:1019400099F58FE799EAA3E081509040A040E1F734
:1019500000C0000020918D012F5F20938D0100D0E9
:1019600000D000D0EDB7FEB731960DE311E0ADB772
:10197000BEB712961C930E93119787E691E093835E
:101980008283248315820E94360F8DB79EB70696F8
:101990000FB6F8949EBF0FBE8DBFC8010E945309B9
:1019A00086E591E00E945F098E010F5F1F4FC8011D
:1019B0000E94C507C80160E370E00E944D0BC8019A
:1019C0006AE271E00E9445088823D1F08AE291E042
:1019D0000E941C098823A1F0DD24D394D092240115
:1019E0008BE391E00E945F090E94D50A67E0E62E32
:1019F000F12CEC0EFD1EC7010E943D08D88627C0C1
:101A00000E94E50B8C0180E190E00E944811801754
:101A10009107F0F582E190E00E944811801791074C
:101A200020F582E0809324018CE191E00E945F091F
:101A30000E94D50A57E0E52EF12CEC0EFD1EC701E1
:101A40000E943D0881E088878E010F5F1F4FC8010B
:101A5000B7010E94B908C80167E371E00E9430082D
:101A600087E391E00E9481073AC08091E0018230D3
:101A700021F48EE091E00E945F0947E0E42EF12C12
:101A8000EC0EFD1EC7010E943D0884E089870AC054
:101A900037E0E32EF12CEC0EFD1EC7010E943D083D
:101AA00081E08A878E010F5F1F4FC801B7010E9436
:101AB000B908C8016AE271E00E944508882339F03C
:101AC0008AE291E00E9481078AE291E004C0C801A5
:101AD0000E948107C80167E371E00E9430080E94FC
:101AE0004C0C0E94D3062C960FB6F894DEBF0FBEA6
:101AF000CDBFCF91DF911F910F91FF90EF90DF90BD
:101B00000895CF92DF92EF92FF920F931F93DF938E
:101B1000CF93CDB7DEB762970FB6F894DEBF0FBE96
:101B2000CDBF80916C00826080936C0080916D00CD
:101B3000816080936D0089E387B992E09AB995E05E
:101B400094B988B98FEF8BB980E391E064E044E108
:101B500050E00E94010B82EE91E064E040E050E032
:101B60000E94010B80EE91E061E047E050E00E94AE
:101B7000010B85E391E061E046E050E00E94010B3B
:101B80008EE891E061E044E050E00E94010B8FE8B4
:101B900091E061E045E050E00E94010B8AE291E0B3
:101BA00066E370E00E94250B109234018AE291E016
:101BB0000E941C09882331F48AE291E06CE370E012
:101BC0000E94250B8091E001833021F4439A0E940A
:101BD000EB004DC06E010894C11CD11CC60160E32E
:101BE00070E00E94250B439A0E94EB008E01095F72
:101BF0001F4FC8010E94C507EDE0EE2EF12CEC0E40
:101C0000FD1EC7010E943D0881E0888B8F87C701B8
:101C1000B6010E94B908C8010E941C09882351F12D
:101C2000C801B6010E944508882321F1C801B70107
:101C30000E9445088823F1F4C80160E370E00E9427
:101C40004D0BC7010E943D088AE08D87C801B7018E
:101C50000E94B908C80167E371E00E943008C8011A
:101C60000E94810781E00E946C0687FF2FC081E0FF
:101C700060E00FC08E010F5F1F4FC8010E941C095A
:101C8000882359F4C80162E470E00E94250B81E0CA
:101C900060E840E80E94B80619C0C8010E944F07DA
:101CA00077E0E72EF12CEC0EFD1EC7010E943D08E7
:101CB00083E08F83C801B7010E94B908C80167E3B8
:101CC00071E00E943008C8010E948107789483B7B0
:101CD000817F846083BF8FEF99E6A8E181509040B7
:101CE000A040E1F700C0000081E00E940D0C80914F
:101CF00026018130A9F5409A809168008B7F8093FE
:101D000068008091640089778093640087E690E0A2
:101D100061E00E943909AFE1BEE41197F1F700C01C
:101D2000000080918D018F5F80938D01439A0E9406
:101D3000EB0004C08091C6008093E1018091C00057
:101D400087FDF8CF0E943B068F3FC1F78091E001ED
:101D50008330A9F481E060E840E80E94B80611C031
:101D6000823011F68091E001833049F4439A0E9459
:101D7000EB0081E060E840E80E94B806B8CF0E941E
:101D80007B0C80E0B2CFDC018D91FB016F5F7F4F58
:101D9000E4918E1719F48823B9F7089581E0089526
:101DA000A82FB92F9D91FB016F5F7F4FE4912A2FE0
:101DB000281B9E1719F49923A9F702C0EE2321F4DA
:101DC00030E02150304002C02FEF3FEFC9010895AD
:101DD000FC01DB0120E030E080818D932F5F3F4FDD
:101DE00081918823C9F7C9010895DB0120E030E023
:101DF000FC01E20FF31FE491ED932F5F3F4FEE23C1
:101E0000B9F7C9010895991B79E004C0991F961785
:101E100008F0961B881F7A95C9F78095089597FB5F
:101E2000092E07260AD077FD04D00CD006D000205A
:101E30001AF4709561957F4F0895F6F79095819506
:101E40009F4F0895AA1BBB1B51E107C0AA1FBB1FD0
:101E5000A617B70710F0A61BB70B881F991F5A9536
:101E6000A9F780959095BC01CD010895AEE0B0E052
:101E7000ECE3FFE00C941F120D891E898EE08C8329
:101E80001A8309838FEF9FE79E838D839E01275ED0
:101E90003F4FCE0101966F89788DA9010E94590F9D
:101EA000EF81F885E00FF11F10822E96E4E00C948C
:101EB0003B12ACE0B0E0EFE5FFE00C9411126C01D6
:101EC0001B018A01FC0117821682838181FFD1C127
:101ED0002E010894411C511CF6019381F10193FDE0
:101EE000859193FF81911F01882309F4BEC185323A
:101EF00039F493FD859193FF81911F01853229F477
:101F000090E0B6010E947711E7CFEE24FF2420E095
:101F10002032B0F48B3269F08C3228F4803251F0E8
:101F2000833271F40BC08D3239F0803349F4216073
:101F30002CC02260246029C0286027C0206125C0F1
:101F400027FD2CC0382F30533A3098F426FF08C0B4
:101F50008E2D880FE82EEE0CEE0CE80EE30E15C069
:101F60008F2D880FF82EFF0CFF0CF80EF30E206259
:101F70000CC08E3221F426FD78C1206406C08C3658
:101F800011F4206802C0883649F4F10193FD85916F
:101F900093FF81911F01882309F0BACF982F9554A0
:101FA000933018F09052933028F40C5F1F4FFFE3EA
:101FB000F9830DC0833631F0833771F0833509F032
:101FC00060C022C0F801808189830E5F1F4F4201EB
:101FD00071E0A72EB12C16C062E0662E712C600E47
:101FE000711EF8018080918026FF03C06E2D70E085
:101FF00002C06FEF7FEFC4012C870E946C115C015F
:1020000083012C852F7717C052E0652E712C600E4E
:10201000711EF8018080918026FF03C06E2D70E054
:1020200002C06FEF7FEFC4012C870E9461115C0139
:102030002C852068830123FD20C008C080E290E049
:10204000B6012C870E947711FA942C858F2D90E091
:10205000A816B90698F311C0F40127FD859127FF52
:1020600081914F0190E0B6012C870E9477112C8559
:10207000F110FA940894A108B108A114B10461F711
:10208000F1C0843611F0893649F527FF08C0F80100
:1020900060817181828193810C5F1F4F09C0F801BB
:1020A00060817181882777FD8095982F0E5F1F4F83
:1020B0004FE6B42EB22297FF09C090958095709597
:1020C00061957F4F8F4F9F4FF0E8BF2AA2012AE012
:1020D00030E00E94A311782E741845C0853731F482
:1020E0003FEEB32EB2222AE030E025C099EFB92EA0
:1020F000B2228F36C1F0803720F4883509F0B5C0A0
:102100000DC0803721F0883709F0AFC002C020E150
:10211000B22AB4FE0BC084E0B82A08C0B4FE09C0DD
:10212000E6E0BE2A06C028E030E005C020E130E04D
:1021300002C020E132E0B7FE08C0F8016081718181
:10214000828193810C5F1F4F07C0F801608171810C
:1021500080E090E00E5F1F4FA2010E94A311782E35
:102160007418FFE7BF22B6FE0BC02EEFB2227E141A
:1021700038F4B4FE07C0B2FC05C08FEEB82202C02E
:10218000A72C01C0AE2C8B2D90E0B4FE0DC0FE013B
:10219000E70DF11D2081203319F4E9EEBE2209C0BC
:1021A000A394B2FE06C004C086789070009709F030
:1021B000A3948B2C9924B3FC14C0B0FE0FC0AF14B1
:1021C00028F4E72CEF0CEA18AF2C08C0E72C06C067
:1021D00080E290E0B6010E947711A394AF14C0F39F
:1021E00004C0AF1410F4FA1801C0FF2484FE0FC01D
:1021F00080E390E0B6010E94771182FE1FC081FE4D
:1022000003C088E590E010C088E790E00DC0C401ED
:1022100086789070009791F081FC02C080E201C046
:102220008BE2B7FC8DE290E0B6010E94771106C008
:1022300080E390E0B6010E947711EA947E14C0F327
:102240007A94F201E70DF11D808190E0B6010E94C1
:1022500077117720A9F706C080E290E0B6010E94CE
:102260007711FA94FF20C1F737CEF6012681378126
:1022700002C02FEF3FEFC9012C96E2E10C942D1222
:10228000F999FECF92BD81BDF89A992780B508953E
:10229000A8E1B0E042E050E00C940312262FF99937
:1022A000FECF1FBA92BD81BD20BD0FB6F894FA9A39
:1022B000F99A0FBE019608950E944E11272F0C9493
:1022C0004F11FC010590615070400110D8F78095C6
:1022D00090958E0F9F1F0895FC01615070400190F2
:1022E0000110D8F7809590958E0F9F1F08950F933A
:1022F0001F93CF93DF938C01EB018B8181FF1BC078
:1023000082FF0DC02E813F818C819D812817390766
:1023100064F4E881F9810193F983E88306C0E885D4
:10232000F985802F0995009731F48E819F81019660
:102330009F838E8302C00FEF1FEFC801DF91CF9103
:102340001F910F910895FA01AA27283051F12031E9
:1023500081F1E8946F936E7F6E5F7F4F8F4F9F4F39
:10236000AF4FB1E03ED0B4E03CD0670F781F891F7B
:102370009A1FA11D680F791F8A1F911DA11D6A0F49
:10238000711D811D911DA11D20D009F468943F91FC
:102390002AE0269F11243019305D3193DEF6CF01FB
:1023A0000895462F4770405D4193B3E00FD0C9F7C1
:1023B000F6CF462F4F70405D4A3318F0495D31FD2E
:1023C0004052419302D0A9F7EACFB4E0A695979581
:1023D000879577956795BA95C9F700976105710557
:1023E00008959B01AC010A2E0694579547953795A1
:1023F0002795BA95C9F7620F731F841F951FA01DFB
:102400000895DC01CB01FC01F999FECF06C0F2BDB5
:10241000E1BDF89A319600B40D9241505040B8F7A2
:1024200008952F923F924F925F926F927F928F9278
:102430009F92AF92BF92CF92DF92EF92FF920F9353
:102440001F93CF93DF93CDB7DEB7CA1BDB0B0FB65D
:10245000F894DEBF0FBECDBF09942A88398848881A
:102460005F846E847D848C849B84AA84B984C884B0
:10247000DF80EE80FD800C811B81AA81B981CE0FA7
:10248000D11D0FB6F894DEBF0FBECDBFED0108958C
:04249000F894FFCFEE
:10249400202020202020416C61726D00202020200B
:1024A40020202054696D65004E6578742057616B57
:0624B400657570000300D5
:00000001FF
